:100000000C94C7000C94E4000C94E4000C94E400FD
:100010000C94E4000C94E4000C94E4000C94E400D0
:100020000C94E4000C94E4000C94E4000C94E400C0
:100030000C94E4000C94E4000C94E4000C94E400B0
:100040000C94E4000C94E4000C94E4000C94E400A0
:100050000C94E4007601870101029801A901BA011C
:100060000102CB01DC01ED0101020102FE01C70327
:10007000C703D103C703C703C703D103C703C7031C
:10008000C703CA03D103C703D103CE036E616E0059
:10009000696E660000407A10F35A00A0724E18098B
:1000A0000010A5D4E80000E87648170000E40B54DF
:1000B000020000CA9A3B000000E1F50500008096AE
:1000C0009800000040420F000000A08601000000E0
:1000D000102700000000E80300000000640000009A
:1000E00000000A00000000000100000000002C7663
:1000F000D888DC674F0823DFC1DFAE59E1B1B7967E
:10010000E5E3E453C63AE651997696E8E6C28426DA
:10011000EB898C9B62ED407C6FFCEFBC9C9F40F2B6
:10012000BAA56FA5F490055A2AF75C936B6CF96732
:100130006DC11BFCE0E40D47FEF520E6B500D0EDF7
:10014000902E0300943577050080841E080000205F
:100150004E0A000000C80C333333330F986E1283FD
:100160001141EF8D2114893BE65516CFFEE6DB18D1
:10017000D1844B381BF77C1D901DA4BBE424203296
:1001800084725E228100C9F124ECA1E53D2711248F
:100190001FBECFE5D8E0DEBFCDBF11E0A0E6B0E0E6
:1001A000E0E8F5E102C005900D92A234B107D9F75D
:1001B00021E0A2E4B1E001C01D92A636B207E1F74A
:1001C0000E94D2030C94BE0A0C940000369A369911
:1001D000FECF84B195B108959C0183E083BF83E88D
:1001E00008C082BF98B7916098BFA89508B600FE76
:1001F000FDCF21503109A8F713BE089540E050E02B
:10020000E1E0F0E094B39F01042E02C0220F331FFF
:100210000A94E2F7922B94BB95B3922B95BB94B3BF
:100220002095922394BB95B3292325BB4F5F5F4F45
:100230004830510539F744B321E030E0F90102C0FC
:10024000EE0FFF1F8A95E2F7CF01942F982B94BBF6
:1002500095B38095892385BB85B36C5F7F4F062E50
:1002600002C0220F331F0A94E2F7282B25BB23B3C9
:1002700030E002C0359527956A95E2F781E090E07D
:1002800020FF02C080E090E008950F931F93CF936A
:10029000DF9300E010E018C0BE01C8010E94FE001C
:1002A000009749F0000F111F000F111FC00FD11F41
:1002B000CE0101960CC02196C430D10569F70F5FBD
:1002C0001F4F0430110519F0C0E0D0E0E5CFDF91F9
:1002D000CF911F910F91089502978D30910508F0ED
:1002E00090C0865D9F4FFC010C94F207FB0180815A
:1002F000813619F482E680830895823621F483E6FC
:10030000FB018083089581E6FB0180830895FB0152
:100310008081843619F485E680830895853621F43A
:1003200086E6FB018083089584E6FB0180830895BF
:10033000FB018081873619F488E68083089588362A
:1003400021F489E6FB018083089587E6FB01808321
:100350000895FB0180818A3619F48BE68083089525
:100360008B3621F48CE6FB01808308958AE6FB013D
:1003700080830895FB0180818D3619F48EE6808399
:1003800008958E3621F48FE6FB01808308958DE673
:10039000FB0180830895FB018081803719F482E797
:1003A00080830895823721F483E7FB0180830895D9
:1003B00080E7FB0180830895FB018081843719F475
:1003C00085E780830895853721F486E7FB018083E4
:1003D000089584E7FB0180830895FB0180818737BE
:1003E00019F488E780830895883721F489E7FB01B1
:1003F0008083089587E7FB01808308958AE7FB01E6
:1004000080830895662311F0C09A01C0C098C198F6
:1004100082BB8FEF81BBC29A000000000000C2982F
:100420000895C098C19A11BA90B3C29A0000000012
:10043000000011BA90B3C29899239CF30E94020263
:100440000895B89AB99ABA9A80E190E00E94EC00B7
:1004500060E080E30E94020285E090E00E94EC00F0
:1004600060E080E30E94020281E090E00E94EC00E4
:1004700060E08CE30E94110260E08CE00E941102B7
:1004800060E086E00E94110260E081E00E941102BB
:10049000089560E081E00E9411020895CF93C62F75
:1004A00098E2899FC00D112460E082E00E94110251
:1004B000CC2331F060E084E10E941102C150D1F7F9
:1004C000CF910895CF93DF93EC012196FC018081B9
:1004D000882331F061E00E94110289918111FACFE5
:1004E000DF91CF910895CF93DF93EC010E944902F1
:1004F00060E081E00E944E02CD2B29F081E990E07E
:100500000E94620204C089E990E00E94620288EEC3
:1005100093E00E94EC0081E090E09093650180936D
:100520006401DF91CF910895CF92DF92EF92FF9215
:100530000F931F93CF93DF9300D0CDB7DEB78B011E
:10054000FC01A081B1818C91882329F16091640024
:100550007091650022E431E06D010F2EFFE5FF2E62
:10056000F02DA901D901FC92FB018081882351F073
:100570003196D6019C91981302C0DA018C93819137
:100580008111F7CFBFEFCB1ADB0A2F5F3F4FF60188
:1005900080818111E6CF80914201882309F449C00E
:1005A000E3E4F1E0EE24E394F12C20E090E08F35D9
:1005B00011F4E22EF92E81918111F9CF60E081E0F2
:1005C0000E944E0282E491E00E9462026FE081E0AC
:1005D0000E944E021A8219821F930F9382EA90E0C2
:1005E0009F938F93CE0101966C019F938F930E94EE
:1005F000DB09C6010E946202109242010F900F9027
:100600000F900F900F900F90012B29F480E090E055
:100610000E94730237C0EF28A9F1E0916400F091C5
:1006200065008081882371F181E090E00E9473026F
:1006300029C060E081E00E944E0282E491E00E94C5
:1006400062026FE081E00E944E021A8219821F93BB
:100650000F9382EA90E09F938F93DE0111967D01C4
:10066000BF93AF930E94DB09C7010E946202109200
:1006700042010F900F900F900F900F900F90012B51
:1006800061F6C4CF0F900F90DF91CF911F910F9122
:10069000FF90EF90DF90CF900895CF93DF93EC0120
:1006A00010926501109264010E945304998388831B
:1006B00086E090E090936800809367001092530169
:1006C00081E1E2E4F1E0DF011D928A95E9F7E09132
:1006D0006400F091650010828091660060E270E035
:1006E00090E00E948D090E944902DF91CF91089508
:1006F000CF93DF9300D0CDB7DEB7AC012091660079
:1007000029831A82A0916400B09165009C9199237D
:1007100051F0291771F1FD01319602C0291749F1F5
:1007200091919111FBCFFA0140815181FA019081A1
:10073000992369F0319641E050E030E080E02913E0
:1007400002C0432F582F91919111F9CF02C041E07F
:1007500050E08091670090916800841B950B909306
:10076000680080936700BE016F5F7F4FCD010E94DC
:1007700082090F900F90DF91CF910895FC0132977D
:10078000EF30F10570F4E95CFF4F0C94F2070E9422
:100790006C010895CA010E944D030895CA010E9488
:1007A00078030895CF93DF9300D0CDB7DEB70E94D2
:1007B00021020E9435040E9453049A8389830F2EDC
:1007C000F5EAEF2EF0E0FF2EF02D03E511E0A02E6C
:1007D000B12E0E944501AE014F5F5F4F66E670E0AB
:1007E0000E94BE038091640190916501892B89F775
:1007F00060E080E00E944E02809165008F938091BE
:1008000064008F93809166001F928F93FF92EF9206
:100810001F930F930E94DB098A2D9B2D0E94620279
:100820008AEF90E00E94EC000E9449020E9445017C
:100830006C016091670070916800CE0101960E9482
:100840009402AE014F5F5F4F66E670E0C6010E9402
:10085000BE030FB6F894DEBF0FBECDBF809164011A
:1008600090916501892B21F2B4CF0F931F93CF9301
:10087000DF9380E487B9379A0E94E600EC0100E13B
:1008800010E00E94E6008C279D27EC01CC0FDD1FB5
:1008900001501109B1F7CE010E949408DF91CF9168
:1008A0001F910F9108950E948F0864E170E00E94EB
:1008B000DE07FC01EE0FFF1FE759FF4F808191819A
:1008C0000895A0E1B0E0E7E6F4E00C94F8077C01BD
:1008D0001B016A01FC0117821682838181FF44C3D8
:1008E0009E012F5F3F4F3901F7019381F10193FD85
:1008F000859193FF81911F01882309F431C38532CB
:1009000039F493FD859193FF81911F01853239F46C
:10091000B70190E00E949F0956016501E5CF10E004
:10092000512C912CFFE1F915D8F08B3279F038F485
:10093000803279F08332A1F4F92DF0612EC08D322E
:1009400061F0803369F4292D21602DC0392D32608A
:10095000932E892D8460982E2AC0E92DE86015C059
:1009600097FC2DC020ED280F2A3088F496FE06C093
:100970003AE0139F200D1124122F19C08AE0589ECF
:10098000200D1124522EE92DE0629E2E10C08E32D1
:1009900031F496FCE5C2F92DF0649F2E08C08C3628
:1009A00021F4292D2068922E02C0883641F4F101ED
:1009B00093FD859193FF81911F018111B3CF9BEB33
:1009C000980F933020F4992D9061805E07C09BE9C9
:1009D000980F933008F066C1992D9F7E96FF16E020
:1009E0009F73992E853619F49064992E08C0863627
:1009F00021F4392F3068932E02C01111115097FE47
:100A000007C01C3350F444244394410E27E00BC02C
:100A1000183038F027E017E005C027E09CE3492EA6
:100A200002C0212F412C560184E0A80EB11CF60112
:100A30006081718182819381042DA3010E949F08AE
:100A40006C01F981FC87F0FF02C0F3FF06C091FC46
:100A500006C092FE06C000E205C00DE203C00BE234
:100A600001C000E08C858C7019F001115AC29BC244
:100A700097FE10C04C0CFC85F4FF04C08A818133C2
:100A800009F44A94141474F528E0241578F588E0E4
:100A9000482E2CC096FC2AC0812F90E08C159D0515
:100AA0009CF03CEFC3163FEFD30674F0892D8068AD
:100AB000982E0AC0E2E0F0E0EC0FFD1FE10FF11DFF
:100AC0008081803319F411501111F4CF97FE0EC0BC
:100AD00044244394410E812F90E0C816D9062CF48B
:100AE0001C1904C04424439401C010E097FE06C0C2
:100AF0001C141D0434F4C601019605C085E090E085
:100B000002C081E090E001110196112331F0212F04
:100B100030E02F5F3F4F820F931F252D30E082176B
:100B2000930714F4581A01C0512C892D897049F487
:100B3000552039F0B70180E290E00E949F095A9455
:100B4000F7CF002329F0B701802F90E00E949F0982
:100B500093FC09C0552039F0B70180E390E00E9472
:100B60009F095A94F7CF97FE4CC04601D7FE02C0AA
:100B7000812C912CC60188199909F301E80FF91FFE
:100B8000FE87ED87960124193109388B2F87012FB5
:100B900010E01195019511093FEF8316930629F492
:100BA000B7018EE290E00E949F09C814D9044CF06E
:100BB0008F8598898815990524F4ED85FE858181B6
:100BC00001C080E3F1E08F1A91082D853E852F5FEB
:100BD0003F4F3E872D87801691062CF0B70190E09D
:100BE0000E949F09D9CFC814D90441F49A81963341
:100BF00020F4953319F43C8534FF81E3B70190E08C
:100C00004EC08A81813319F09C859F7E9C87B701F5
:100C100090E00E949F09111105C094FC18C085E660
:100C200090E017C0B7018EE290E00E949F091E5F1E
:100C300082E001E0080FF301E80FF11D8081B701A8
:100C400090E00E949F09802F0113F3CFE6CF85E447
:100C500090E0B7010E949F09D7FC06C0C114D104DF
:100C600041F4EC85E4FF05C0D194C194D1088DE234
:100C700001C08BE2B70190E00E949F0980E32AE067
:100C8000C216D1042CF08F5FFAE0CF1AD108F7CF4B
:100C9000B70190E00E949F09B701C601C0960E946B
:100CA0009F0954C1833631F0833779F0833509F0D9
:100CB00056C020C0560132E0A30EB11CF60180815F
:100CC000898301E010E0630112C05601F2E0AF0E2B
:100CD000B11CF601C080D18096FE03C0612F70E088
:100CE00002C06FEF7FEFC6010E9494098C01F92DBD
:100CF000FF7714C0560122E0A20EB11CF601C0809D
:100D0000D18096FE03C0612F70E002C06FEF7FEFCD
:100D1000C6010E9477098C01F92DF0689F2EF3FD22
:100D20001AC0852D90E008171907A8F4B70180E2D2
:100D300090E00E949F095A94F4CFF60197FC8591A8
:100D400097FE81916F01B70190E00E949F095110B9
:100D50005A94015011090115110579F7F7C084362D
:100D600011F0893661F5560197FE09C024E0A20E04
:100D7000B11CF60160817181828193810AC0F2E029
:100D8000AF0EB11CF60160817181072E000C880B3B
:100D9000990BF92DFF769F2E97FF09C090958095AE
:100DA000709561957F4F8F4F9F4FF0689F2E2AE07F
:100DB00030E0A3010E94FD09C82EC6183FC0092DCE
:100DC000853721F40F7E2AE030E01DC0097F8F3681
:100DD00091F018F4883559F0C3C0803719F088377E
:100DE00011F0BEC0006104FF09C0046007C094FE9A
:100DF00008C0066006C028E030E005C020E130E011
:100E000002C020E132E0560107FF09C084E0A80ECD
:100E1000B11CF601608171818281938108C0F2E08A
:100E2000AF0EB11CF6016081718180E090E0A301FA
:100E30000E94FD09C82EC6180F77902E96FE0BC093
:100E4000092D0E7FC11650F494FE0AC092FC08C012
:100E5000092D0E7E05C0DC2C092D03C0DC2C01C041
:100E6000D12E04FF0DC0FE01EC0DF11D80818033F9
:100E700011F4097E09C002FF06C0D394D39404C0C4
:100E8000802F867809F0D39403FD11C000FF06C0BF
:100E90001C2DD51480F4150D1D190DC0D51458F452
:100EA000B70180E290E00E949F09D394F7CFD51458
:100EB00010F45D1801C0512C04FF10C0B70180E38D
:100EC00090E00E949F0902FF17C001FD03C088E760
:100ED00090E002C088E590E0B7010CC0802F8678D2
:100EE00059F001FF02C08BE201C080E207FD8DE2F4
:100EF000B70190E00E949F09C11638F4B70180E362
:100F000090E00E949F091150F7CFCA94F301EC0DB5
:100F1000F11D8081B70190E00E949F09C110F5CFBB
:100F200015C0F4E0F51560F584E0581A93FE1FC073
:100F3000011127C02C8523FF2AC00CE810E0392DB1
:100F40003071932EF8018491811124C0552009F449
:100F5000E4CCB70180E290E00E949F095A94F6CF5A
:100F6000F7018681978126C08FEF9FEF23C0B701DD
:100F700080E290E00E949F095A945110F8CFD8CF98
:100F8000512CB701802F90E00E949F09D3CF00E938
:100F900010E0D5CF91108052B70190E00E949F09D8
:100FA0000F5F1F4FCFCF23E0251510F483E0BDCF97
:100FB000512CC0CF6096E2E10C94140897FB072EE9
:100FC00016F4009407D077FD09D00E942F0807FC83
:100FD00005D03EF4909581959F4F08957095619549
:100FE0007F4F0895EE0FFF1F0590F491E02D0994B7
:100FF0002F923F924F925F926F927F928F929F9229
:10100000AF92BF92CF92DF92EF92FF920F931F9316
:10101000CF93DF93CDB7DEB7CA1BDB0B0FB6F894C7
:10102000DEBF0FBECDBF09942A88398848885F8407
:101030006E847D848C849B84AA84B984C884DF8078
:10104000EE80FD800C811B81AA81B981CE0FD11D5C
:101050000FB6F894DEBF0FBECDBFED010895AA1BF9
:10106000BB1B51E107C0AA1FBB1FA617B70710F093
:10107000A61BB70B881F991F5A95A9F780959095C5
:10108000BC01CD0108958F929F92AF92BF92CF92F3
:10109000DF92EF92FF92CF93DF93EC016881798129
:1010A0008A819B81611571058105910521F464E2B6
:1010B00079ED8BE597E02DE133EF41E050E00E94C0
:1010C0005B0A49015A019B01AC01A7EAB1E40E9405
:1010D0007A0A6B017C01ACEEB4EFA50194010E9489
:1010E000880ADC01CB018C0D9D1DAE1DBF1DB7FF15
:1010F00003C00197A109B04888839983AA83BB8361
:101100009F77DF91CF91FF90EF90DF90CF90BF90CE
:10111000AF909F908F9008950E944308089580E6B5
:1011200090E00E9443080895A0E0B0E08093600042
:1011300090936100A0936200B093630008952830FB
:1011400008F027E03327DA01990F311D87FD916000
:1011500000966105710539F432602E5F3D9330E3EE
:101160002A95E1F708959F3F30F0803871056105B9
:1011700009F03C5F3C5F3D93913008F08068911D21
:10118000DF93CF931F930F93FF92EF92192F987FC6
:101190009695E92F96959695E90FFF27E251FF4F17
:1011A00099273327EE24FF24A701E701059008942F
:1011B000079428F4360FE71EF81E491F511D660FCD
:1011C000771F881F991F0694A1F70590079428F4AC
:1011D000E70EF81E491F561FC11D770F881F991F64
:1011E000661F0694A1F70590079428F4F80E491F8E
:1011F000561FC71FD11D880F991F661F771F0694A2
:10120000A1F70590079420F4490F561FC71FD81F58
:10121000990F661F771F881F0694A9F78491109570
:10122000177041F0D695C79557954795F794E79471
:101230001A95C1F7E4E9F0E068941590159135919D
:101240006591959105907FE27395E118F10A430B42
:10125000560BC90BD009C0F7E10CF11E431F561FF6
:10126000C91FD01D7EF4703311F48A95E6CFE8943F
:10127000015030F0080F0AF40027021708F4202F5D
:101280002395022F7A3328F079E37D932A95E9F7A5
:1012900010C07D932A9589F60694979567953795A2
:1012A00017951794E118F10A430B560BC90BD00997
:1012B00098F023957E9173957A3308F070E37C93D0
:1012C0002013B8F77E9170617D9330F0839571E3C0
:1012D0007D9370E32A95E1F71124EF90FF900F9131
:1012E0001F91CF91DF91992787FD90950895FC017B
:1012F0000590615070400110D8F7809590958E0F41
:101300009F1F0895FB01DC010D900020E9F7119764
:1013100001900D920020E1F70895FB01DC0101909E
:101320000D920020E1F70895FC016150704001909A
:101330000110D8F7809590958E0F9F1F08950F93F9
:101340001F93CF93DF93FB01238121FD03C08FEF18
:101350009FEF2CC022FF16C0468157812481358122
:101360004217530744F4A081B1819D012F5F3F4F85
:10137000318320838C93268137812F5F3F4F3783C2
:10138000268314C08B01EC01FB010084F185E02D64
:101390000995892BE1F6D80116968D919C911797A6
:1013A000019617969C938E931697CE01DF91CF915D
:1013B0001F910F910895AEE0B0E0E1EEF9E00C94DA
:1013C00006080D891E8986E08C831A8309838FEFB6
:1013D0009FE79E838D83AE01475E5F4F6F89788D57
:1013E000CE0101960E946104EF81F885E00FF11FA4
:1013F00010822E96E4E00C942208FA01AA272830E5
:1014000051F1203181F1E8946F936E7F6E5F7F4FD1
:101410008F4F9F4FAF4FB1E03ED0B4E03CD0670F4D
:10142000781F891F9A1FA11D680F791F8A1F911DA0
:10143000A11D6A0F711D811D911DA11D20D009F4F0
:1014400068943F912AE0269F11243019305D319332
:10145000DEF6CF010895462F4770405D4193B3E01B
:101460000FD0C9F7F6CF462F4F70405D4A3318F0C2
:10147000495D31FD4052419302D0A9F7EACFB4E073
:10148000A6959795879577956795BA95C9F700972B
:101490006105710508959B01AC010A2E06945795CC
:1014A000479537952795BA95C9F7620F731F841F23
:1014B000951FA01D0895052E97FB1EF400940E9411
:1014C000720A57FD07D00E948D0A07FC03D04EF424
:1014D0000C94720A50954095309521953F4F4F4F8F
:1014E0005F4F089590958095709561957F4F8F4FD0
:1014F0009F4F08950E94AF0AA59F900DB49F900D35
:10150000A49F800D911D11240895B7FF0C947A0AB1
:101510000E947A0A821B930B0895A1E21A2EAA1B3D
:10152000BB1BFD010DC0AA1FBB1FEE1FFF1FA21793
:10153000B307E407F50720F0A21BB30BE40BF50B90
:10154000661F771F881F991F1A9469F76095709519
:10155000809590959B01AC01BD01CF010895A29F9C
:10156000B001B39FC001A39F700D811D1124911D77
:10157000B29F700D811D1124911D0895F894FFCF25
:1015800001000000BB00200600AB00B500BC00C39A
:1015900000CA00D000DA00E000E600F000F9000028
:1015A00001090111011801210126012D0133013D1D
:1015B00001796F7520776F6E00796F75206C6F738E
:1015C0007400256400256320257300616C6C6967D5
:1015D00061746F720062616E616E6100636F6F6B48
:1015E000696500706F7461746F00746F617374006B
:1015F0006A656C6C7966697368006D61706C650012
:1016000073746F72790065636F6E6F6D69637300D9
:1016100074657874626F6F6B0066697363616C00E8
:101620007061747465726E73007468656F72656D55
:1016300000696E636F6D650072656C6174696F6ED1
:101640000063617365006E61747572650070726924
:101650006D650062756D626C656265650069726FCB
:021660006E001A
:00000001FF
